:100000000C9462000C948A000C948A000C948A0070
:100010000C948A000C948A000C948A000C948A0038
:100020000C948A000C948A000C948A000C94F906B3
:100030000C948A000C948A000C948A000C948A0018
:100040000C94AF060C948A000C947D060C94570611
:100050000C948A000C948A000C948A000C948A00F8
:100060000C948A000C948A000000000024002700F1
:100070002A0000000000250028002B0000000000DE
:1000800023002600290004040404040404040202DA
:100090000202020203030303030301020408102007
:1000A0004080010204081020010204081020000012
:1000B0000008000201000003040700000000000027
:1000C0000000BA0711241FBECFEFD8E0DEBFCDBFBE
:1000D00011E0A0E0B1E0E8E1FEE102C005900D9280
:1000E000AA3BB107D9F723E0AAEBB1E001C01D920A
:1000F000AB30B207E1F710E0C2E6D0E004C02197D0
:10010000FE010E94FF0EC136D107C9F70E945B08AD
:100110000C940A0F0C940000DC01ED91FC9101900D
:10012000F081E02D0994CF92DF92EF92FF920F932E
:100130001F93CF93DF936C017A018B01C0E0D0E075
:10014000CE15DF0589F0D8016D918D01D601ED91B5
:10015000FC910190F081E02DC6010995892B11F4E5
:100160007E0102C02196ECCFC701DF91CF911F9194
:100170000F91FF90EF90DF90CF900895FC01538D89
:10018000448D252F30E0842F90E0821B930B541771
:1001900010F0CF96089501970895FC01918D828DFE
:1001A000981761F0828DDF01A80FB11D5D968C91CB
:1001B000928D9F5F9F73928F90E008958FEF9FEFD6
:1001C0000895FC01918D828D981731F0828DE80F92
:1001D000F11D858D90E008958FEF9FEF0895FC014C
:1001E000918D228D892F90E0805C9F4F821B910919
:1001F0008F73992708958EE192E00E94EF0021E02D
:10020000892B09F420E0822F0895FC01848DDF0101
:10021000A80FB11DA35ABF4F2C91848D90E0019679
:100220008F739927848FA689B7892C93A089B18968
:100230008C9180648C93938D848D981306C0028872
:10024000F389E02D80818F7D80830895EF92FF9266
:100250000F931F93CF93DF93EC0181E0888F9B8DE9
:100260008C8D981305C0E889F989808185FD24C0AB
:10027000F62E0B8D10E00F5F1F4F0F731127E02E2E
:100280008C8DE8120CC00FB607FCFACFE889F9890B
:10029000808185FFF5CFCE010E940501F1CF8B8DC6
:1002A000FE01E80FF11DE35AFF4FF0820B8FEA8940
:1002B000FB898081806207C0EE89FF896083E889BD
:1002C000F98980818064808381E090E0DF91CF9123
:1002D0001F910F91FF90EF900895CF93DF93EC0162
:1002E000888D8823C9F0EA89FB89808185FD05C056
:1002F000A889B9898C9186FD0FC00FB607FCF5CF90
:10030000808185FFF2CFA889B9898C9185FFEDCFD7
:10031000CE010E940501E7CFDF91CF91089580E0E3
:1003200090E0892B29F00E94FB0081110C940000C1
:100330000895833081F028F4813099F08230A1F063
:1003400008958730A9F08830B9F08430D1F48091D5
:1003500080008F7D03C0809180008F778093800024
:10036000089584B58F7702C084B58F7D84BD0895CC
:100370008091B0008F7703C08091B0008F7D809313
:10038000B0000895CF93DF93282F30E0F901E255B4
:10039000FF4F8491F901E656FF4FD491F901EA57D6
:1003A000FF4FC491CC2391F081110E949901EC2F51
:1003B000F0E0EE0FFF1FE458FF4FA591B491EC91D0
:1003C000ED2381E090E021F480E002C080E090E045
:1003D000DF91CF9108951F93CF93DF93282F30E0C3
:1003E000F901E255FF4F8491F901E656FF4FD49190
:1003F000F901EA57FF4FC491CC23C9F0162F8111A0
:100400000E949901EC2FF0E0EE0FFF1FEE58FF4F16
:10041000A591B4918FB7F894111105C09C91ED2F5F
:10042000E095E92302C0EC91ED2BEC938FBFDF91B7
:10043000CF911F910895CF93DF9390E0FC01E65692
:10044000FF4F2491FC01EA57FF4F8491882361F10B
:1004500090E0880F991FFC01E859FF4FC591D49196
:10046000FC01EE58FF4FA591B491611109C09FB7EF
:10047000F8948881209582238883EC912E230BC0E9
:10048000623061F49FB7F8943881822F809583237E
:100490008883EC912E2B2C939FBF06C08FB7F894C6
:1004A000E8812E2B28838FBFDF91CF9108958E3066
:1004B00008F08E508770806480937C0080917A0071
:1004C000806480937A0080917A0086FDFCCF8091D1
:1004D00078002091790090E0922B08953FB7F8942E
:1004E0008091BC019091BD01A091BE01B091BF016E
:1004F00026B5A89B05C02F3F19F00196A11DB11D7F
:100500003FBFBA2FA92F982F8827820F911DA11DB9
:10051000B11DBC01CD0142E0660F771F881F991FF6
:100520004A95D1F70895CF93DF93EC0160E08E8177
:100530000E94EB0161E08E810E94EB0160E08E8100
:100540000E94EB018BE891E00197F1F7DF91CF91E9
:100550000895CF92DF92EF92FF920F931F93CF9364
:10056000DF937C016C0187E0C80ED11CC0E0D0E0B5
:10057000062F10E0B8010C2E02C0759567950A94FD
:10058000E2F76170F60181916F010E94EB01219603
:10059000C430D10579F7C701DF91CF911F910F9139
:1005A000FF90EF90DF90CF900C949302CF92DF9268
:1005B000EF92FF920F931F93CF93DF93EC01F62EF0
:1005C000642F8C810E94EB018D818F3F19F060E0D8
:1005D0000E94EB018F850F2D10E084FF25C06E0176
:1005E00087E0C80ED11CE12CF12CB8010E2C02C002
:1005F000759567950A94E2F76170F60181916F0134
:100600000E94EB01FFEFEF1AFF0A88E0E816F10401
:1006100061F7CE01DF91CF911F910F91FF90EF9085
:10062000DF90CF900C949302B80184E075956795A4
:100630008A95E1F7CE010E94A9026F2DCE01DF91CC
:10064000CF911F910F91FF90EF90DF90CF900C947E
:10065000A90241E00E94D60281E090E0089540E0C6
:100660000C94D602EF92FF920F931F93CF93DF93D8
:10067000EC01423018F08F8588608F874B8B1C8A85
:1006800080E48D8B6E8B70E0605C7F4F6F8B61E0E0
:100690008C810E941B028D818F3F19F061E00E94C6
:1006A0001B0261E08E810E941B027E0187E0E80E42
:1006B000F11C00E010E08F8584FD03C084E090E031
:1006C00002C088E090E0081719074CF461E0F701D8
:1006D00081917F010E941B020F5F1F4FECCF8BE3C4
:1006E0009DE00197F1F760E08C810E94EB0160E0F2
:1006F0008E810E94EB018D818F3F19F060E00E9496
:10070000EB016F8564FD1DC063E0CE010E94A9026C
:100710000BE416E4C8010197F1F763E0CE010E94F3
:10072000A902C8010197F1F763E0CE010E94A90276
:1007300083E592E00197F1F762E0CE010E94A90201
:1007400016C06062CE010E942F038BE496E40197ED
:10075000F1F76F856062CE010E942F0383E592E07E
:100760000197F1F76F856062CE010E942F036F85BC
:100770006062CE010E942F0384E0888B6CE0CE0182
:100780000E942F0361E0CE010E942F038BE39FE1C3
:100790000197F1F782E0898B66E0CE01DF91CF917E
:1007A0001F910F91FF90EF900C942F03CF92DF9247
:1007B000EF92FF920F931F93CF93DF9300D0CDB7AB
:1007C000DEB78C01677088E0689FB0011124606417
:1007D000C80149835A830E942F034981C42E5A813C
:1007E000D52E7601A8E0EA0EF11CF60161916F01A9
:1007F000D801ED91FC910190F081E02DC80109959F
:10080000CE14DF0491F70F900F90DF91CF911F91DD
:100810000F91FF90EF90DF90CF9008950F93CF93BB
:10082000DF93EC01CB01798368834A832B830C83AC
:1008300048E151E061E00E94D60340E151E062E00E
:10084000888199810E94D60348E051E063E0888165
:1008500099810E94D60340E051E064E0888199814B
:100860000E94D6031E821D821F82DF91CF910F91BD
:100870000895FC01443008F043E08389481710F0E4
:100880004FEF480FDF01A40FB11D54969C91690FE3
:100890006068CF010C942F034F925F926F927F920A
:1008A0009F92AF92BF92CF92DF92EF92FF920F93FF
:1008B0001F93CF93DF935C01DC0112962C9130E003
:1008C000DB010E94E40E6B017C0128EE422E23E046
:1008D000522E612C712CA30192010E94260CD22F62
:1008E000922EA5E0B0E0A70196010E94450CA3015D
:1008F00092010E94260CCA01B90125E030E040E0D7
:1009000050E00E94260C762EC62ED12CB5E0DB9F3F
:10091000C00CD11C1124F501858196818C159D0593
:10092000D1F1F62E0D2FE501448163818081918103
:100930000E94390410E0191560F488819981DC0166
:10094000ED91FC910190F081E02D6FEF09951F5F13
:10095000F2CF772069F088819981DC01ED91FC91DB
:100960000190F081E02D6F2D099599249394900EBC
:10097000192D8F81181760F488819981DC01ED9120
:10098000FC910190F081E02D60E209951F5FF1CFAD
:100990009F82DE82CD82DF91CF911F910F91FF90D8
:1009A000EF90DF90CF90BF90AF909F907F906F902F
:1009B0005F904F900895089580E090E008950E9420
:1009C000050F6115710579F0FB0101900020E9F731
:1009D0003197AF01461B570BDC01ED91FC91028072
:1009E000F381E02D099480E090E008954F925F92AA
:1009F0006F927F92EF92FF920F931F93CF93DF93AB
:100A0000CDB7DEB7A1970FB6F894DEBF0FBECDBF4E
:100A10007C01FA01CB0119A2223008F42AE08E01F0
:100A20000F5D1F4F422E512C612C712CBF01A30171
:100A300092010E94500CF901CA01015011096A305B
:100A400014F4605D01C0695CD8016C93232B242BE6
:100A5000252B61F7B801C7010E94E104A1960FB6EA
:100A6000F894DEBF0FBECDBFDF91CF911F910F91E4
:100A7000FF90EF907F906F905F904F900895CF928E
:100A8000DF92EF92FF92CF93DF936C01990FEE0804
:100A9000FF08F7FE1BC06DE28EE192E00E948C0021
:100AA000EC0144275527BA014C195D096E097F09ED
:100AB0002AE08EE192E00E94F6048C0F9D1FDF91E8
:100AC000CF91FF90EF90DF90CF9008952AE0B7018B
:100AD000A6018EE192E0DF91CF91FF90EF90DF9041
:100AE000CF900C94F6044F925F926F927F928F9208
:100AF0009F92AF92BF92CF92DF92EF92FF92CF93ED
:100B0000DF93EC016A017B01B22E9A01AB01C701B0
:100B1000B6010E94BF0E882319F064E471E027C07B
:100B200026013701E89477F82FEF3FEF4FE75FE7B3
:100B3000C301B2010E94BF0E81110DC02FEF3FEF24
:100B40004FE75FE7C301B2010E94EE0C18161CF4D8
:100B500068E471E00CC02FEF3FEF4FE75FE4C7019F
:100B6000B6010E944D0E18169CF46CE471E0CE01A3
:100B7000DF91CF91FF90EF90DF90CF90BF90AF903B
:100B80009F908F907F906F905F904F900C94E104B6
:100B90002FEF3FEF4FE75FECC701B6010E94EE0C6D
:100BA00087FDE3CF20E030E0A901C701B6010E9434
:100BB000EE0C87FF0AC06DE2CE010E948C004C0152
:100BC000F7FAF094F7F8F09402C0812C912CA12C44
:100BD00060E070E080E09FE3AB1441F020E030E0A3
:100BE00040E251E40E94F30CA394F6CF9B01AC01C8
:100BF000C701B6010E94820C2B013C010E946C0DC2
:100C00006B017C010E949B0D9B01AC01C301B201F1
:100C10000E94810C2B013C012AE0B701A601CE0104
:100C20000E94F6047C01E80CF91CBB2031F06EE256
:100C3000CE010E948C00E80EF91EDB2CDD2029F18C
:100C400020E030E040E251E4C301B2010E94520EC4
:100C50002B013C010E946C0D4B01A12CB12C2AE010
:100C6000B501A401CE010E94F604E80EF91EC501EB
:100C7000B4010E949B0D9B01AC01C301B2010E9413
:100C8000810C2B013C01DA94D9CFC701DF91CF91C0
:100C9000FF90EF90DF90CF90BF90AF909F908F909C
:100CA0007F906F905F904F9008950C94E1041F9295
:100CB0000F920FB60F9211242F933F934F935F9390
:100CC0006F937F938F939F93AF93BF93EF93FF9314
:100CD0008EE192E00E940501FF91EF91BF91AF91EB
:100CE0009F918F917F916F915F914F913F912F9144
:100CF0000F900FBE0F901F9018951F920F920FB676
:100D00000F9211242F938F939F93EF93FF93E09172
:100D10002E02F0912F028081E0913402F091350291
:100D200082FD12C09081809137028F5F8F73209176
:100D30003802821751F0E0913702F0E0E25EFD4F99
:100D4000958F8093370201C08081FF91EF919F9131
:100D50008F912F910F900FBE0F901F9018951F929B
:100D60000F920FB60F9211242F933F938F939F935F
:100D7000AF93BF938091CA019091CB01A091CC0118
:100D8000B091CD013091BB0123E0230F2D3720F42A
:100D90000196A11DB11D05C026E8230F0296A11DD5
:100DA000B11D2093BB018093CA019093CB01A09306
:100DB000CC01B093CD018091BC019091BD01A09177
:100DC000BE01B091BF010196A11DB11D8093BC0170
:100DD0009093BD01A093BE01B093BF01BF91AF91AD
:100DE0009F918F913F912F910F900FBE0F901F9069
:100DF00018951F920F920FB60F9211242F933F93C5
:100E00004F935F936F937F938F939F93AF93BF9312
:100E1000EF93FF938091BA0187FF05C01092850080
:100E2000109284001BC02091BA01022E000C330BDB
:100E30008091DF0290E02817390784F48091BA018D
:100E4000082E000C990BFC01EE0FFF1F8E0F9F1F49
:100E5000FC01E554FD4F808186FD15C08091BA01EB
:100E60008F5F8093BA012091BA01022E000C330BE0
:100E70008091DF0290E028173907C4F48091BA010D
:100E80008C3064F113C08091BA01082E000C990BCC
:100E9000FC01EE0FFF1F8E0F9F1FFC01E554FD4F5D
:100EA000808160E08F730E94EB01D8CF8091840035
:100EB00090918500049680349C4918F480E49CE964
:100EC00005C08091840090918500049690938900DC
:100ED000809388008FEF8093BA013BC020918400FB
:100EE000309185008091BA01082E000C990BFC010D
:100EF000EE0FFF1F8E0F9F1FFC01E554FD4F8181F8
:100F00009281820F931F9093890080938800809133
:100F1000BA01082E000C990BFC01EE0FFF1F8E0F7B
:100F20009F1FFC01E554FD4F808186FF12C0809118
:100F3000BA01082E000C990BFC01EE0FFF1F8E0F5B
:100F40009F1FFC01E554FD4F808161E08F730E947B
:100F5000EB01FF91EF91BF91AF919F918F917F91A5
:100F60006F915F914F913F912F910F900FBE0F9016
:100F70001F9018950F93109221021092200288EE74
:100F800093E0A0E0B0E08093220290932302A0932C
:100F90002402B09325028AE291E090931F0280938D
:100FA0001E0285EC90E090932B0280932A0284EC41
:100FB00090E090932D0280932C0280EC90E090932F
:100FC0002F0280932E0281EC90E090933102809367
:100FD000300282EC90E0909333028093320286ECF0
:100FE00090E0909335028093340210923702109271
:100FF00038021092390210923A028091DF028C304E
:10100000A0F491E0980F9093DF028093080390E0A2
:10101000FC01EE0FFF1F8E0F9F1FFC01E554FD4FDB
:1010200088EB9BE09283818303C08FEF809308035A
:101030001092F3021092F2028CE391E09093F1028D
:101040008093F0028CE08093F4028FEF8093F5029E
:101050008BE08093F60285E08093F70284E0809332
:10106000F80283E08093F90282E08093FA02109202
:10107000FB021092FC021092FD021092FE021092EE
:10108000FF0241E060E180EF92E00E94320302E063
:1010900020E044E160EF72E088EE92E00E940E04EE
:1010A00003E020E044E160EF72E080EE92E00E9415
:1010B0000E040F910895CF93DF9300D000D0CDB7E9
:1010C000DEB7789484B5826084BD84B5816084BDC8
:1010D00085B5826085BD85B5816085BD80916E00D6
:1010E000816080936E001092810080918100826007
:1010F0008093810080918100816080938100809144
:1011000080008160809380008091B1008460809332
:10111000B1008091B00081608093B00080917A002E
:10112000846080937A0080917A00826080937A0054
:1011300080917A00816080937A0080917A00806843
:1011400080937A001092C100809108038C3008F0DF
:1011500051C061E08DE00E941B0280910803E82FDE
:10116000F0E09F01220F331FE20FF31FE554FD4F04
:101170009081907C9D6090831092090310920A03E5
:101180006CE00E94C40E2CE0829FB001112440E06C
:1011900050E09A01260F371FF901EE0FFF1F2E0FA7
:1011A0003F1FF901E554FD4F908196FD16C04F5F3A
:1011B0005F4F4C30510569F781110FC010928000CC
:1011C00082E0809381001092850010928400B19A91
:1011D00080916F00826080936F00E0910803F0E0DF
:1011E000CF01880F991FE80FF91FE554FD4F80814B
:1011F00080648083E0912E02F0912F0282E0808350
:10120000E0912A02F0912B021082E0912C02F091E1
:101210002D0280E1808310923602E0913202F0913B
:10122000330286E08083E0913002F09131028081C8
:1012300080618083E0913002F0913102808188608A
:101240008083E0913002F091310280818068808358
:10125000E0913002F091310280818F7D808344E003
:1012600064E180EF92E00E94320361E080EF92E05F
:101270000E942F038BE39FE10197F1F762E087E083
:101280000E941B0262E088E00E941B0262E089E08B
:101290000E941B0262E08AE00E941B0260E086E07E
:1012A0000E941B02E2EFF1E01192119262E0EA313A
:1012B000F607D1F7A8E82A2E312C08E512E0B4E6AB
:1012C0004B2E512C612C712C40E063E080EF92E0BA
:1012D0000E94390460E571E080EF92E00E945506BB
:1012E00040E06DE080EF92E00E9439044091DA0125
:1012F0005091DB016091DC017091DD0122E080EF13
:1013000092E00E94730541E061E080EF92E00E946C
:1013100039046BE571E080EF92E00E94550641E0F0
:101320006BE080EF92E00E9439044091E801509117
:10133000E9016091EA017091EB0122E080EF92E017
:101340000E9473056091CE017091CF0188EE92E00A
:101350000E944C046091C0017091C10180EE92E046
:101360000E944C0469E671E08EE192E00E9455060D
:1013700080912001909121010E943F0566E671E075
:101380008EE192E00E9455068091C8019091C901BA
:101390000E943F056CE671E08EE192E00E945506E6
:1013A0008CED95E00E943F0565E771E08EE192E0EB
:1013B0000E9455068091D0019091D1010E943F0575
:1013C00067E871E08EE192E00E9455064091DE01EF
:1013D0005091DF016091E0017091E10122E08EE126
:1013E00092E00E9473056FE871E08EE192E00E9446
:1013F000550661E971E08EE192E00E945506409148
:10140000EC015091ED016091EE017091EF0122E04D
:101410008EE192E00E9473056CE971E08EE192E04A
:101420000E9455066EE971E08EE192E00E94550639
:1014300080912401909125010E943F056CE971E0A3
:101440008EE192E00E9455066CEA71E08EE192E036
:101450000E9455064091D6015091D7016091D80164
:101460007091D90122E08EE192E00E94730565EB54
:1014700071E08EE192E00E94E10468EB71E08EE1A0
:1014800092E00E94E10465EB71E08EE192E00E943F
:10149000E1048EE00E9457029093C9018093C80135
:1014A000092E000CAA0BBB0B9C01AD012550310984
:1014B00041095109A8EEB3E00E94450C24EF33E046
:1014C00040E050E00E94260C49015A0178EE870E58
:1014D00073E0971EA11CB11C9092C3018092C201BF
:1014E000C401885E93409093C1018093C00187E05E
:1014F0000E94C2017C01909321018093200188E029
:101500000E94C2019093C7018093C6018AE00E94A5
:10151000C2019093C5018093C401EF2829F49092F1
:10152000D1018092D00106C08CED95E09093D1015D
:101530008093D0018FB7F8944091CA015091CB01AC
:101540006091CC017091CD018FBF8091D2019091BB
:10155000D301A091D401B091D501481B590B6A0B5E
:101560007B0B4A3051056105710508F462C00A968B
:10157000A11DB11D8093D2019093D301A093D401FA
:10158000B093D50180912201909123012091D00147
:101590003091D1012817390714F4059704C0821738
:1015A00093072CF405969093230180932201409198
:1015B000220150912301209108032C3080F5809165
:1015C0000903F101E81BF10987FDF395CF01880FAD
:1015D000991F880F991F4817590784F080910A03B3
:1015E000B801681B710987FD7395CB01880F991F9E
:1015F000880F991F481759070CF4CA010297880FE2
:10160000991F6FB7F89430E0A901440F551F240FBC
:10161000351FF901E554FD4F928381836FBF80919F
:10162000220190912301885E93409093CF01809393
:10163000CE0180E10E9457029093250180932401FE
:1016400040911A0250911B02FA01EE0FFF1FEE505B
:10165000FE4F20911C0230911D0260817181261B7A
:10166000370B91838083820F931F90931D02809389
:101670001C024F5F5F4F443151052CF450931B0205
:1016800040931A0204C010921B0210921A0264E1E5
:1016900070E00E94D00E7093F1016093F001072E6C
:1016A000000C880B990B0E949D0D2AE137E64CE94E
:1016B00050E40E94520E20E030E44CE155E40E94D8
:1016C000810C20E030E044E852E40E94F30C6B010E
:1016D0007C016093EC017093ED018093EE01909397
:1016E000EF0120E030E048EC52E40E94520E4B0142
:1016F0005C0120E030E0A9010E944D0E20E030E0C6
:1017000040E05FE387FD05C0C501B4010E94820C83
:1017100004C0C501B4010E94810C0E94650DA301A3
:1017200092010E94260CCA01B9010E949D0D60938E
:10173000E8017093E9018093EA019093EB0182E163
:101740000E9457029093E7018093E601BC01990F34
:10175000880B990B0E949D0D20E030E040EA50E498
:101760000E94520E20E030E040E85AE30E94520E00
:101770006093E2017093E3018093E4019093E501AB
:1017800025EC3EE44CE65EE30E94F30C4B015C0169
:101790006093DE017093DF018093E0019093E1019B
:1017A00020E030E048EC52E40E94520E69837A83D4
:1017B0008B839C8320E030E0A9010E944D0E20E045
:1017C00030E040E05FE387FD07C069817A818B816B
:1017D0009C810E94820C06C069817A818B819C81E8
:1017E0000E94810C0E94650DA30192010E94260CAB
:1017F000CA01B9010E949D0D6093DA017093DB016B
:101800008093DC019093DD01A5019401C701B6012D
:101810000E94520E6093D6017093D7018093D80135
:101820009093D9010E946E026B017C010E946E02AE
:10183000DC01CB018C199D09AE09BF09883E93409C
:10184000A105B10598F30E948F013ECD052E97FBAF
:101850001EF400940E943D0C57FD07D00E94500CCE
:1018600007FC03D04EF40C943D0C509540953095F8
:1018700021953F4F4F4F5F4F0895909580957095FC
:1018800061957F4F8F4F9F4F08950E94720CA59FC7
:10189000900DB49F900DA49F800D911D112408956B
:1018A000A1E21A2EAA1BBB1BFD010DC0AA1FBB1F64
:1018B000EE1FFF1FA217B307E407F50720F0A21BD6
:1018C000B30BE40BF50B661F771F881F991F1A9443
:1018D00069F760957095809590959B01AC01BD016D
:1018E000CF010895A29FB001B39FC001A39F700DC7
:1018F000811D1124911DB29F700D811D1124911D18
:1019000008955058BB27AA270E94990C0C94130ED7
:101910000E94050E38F00E940C0E20F039F49F3F13
:1019200019F426F40C94020E0EF4E095E7FB0C94E7
:10193000FC0DE92F0E94240E58F3BA1762077307B3
:101940008407950720F079F4A6F50C94460E0EF462
:10195000E0950B2EBA2FA02D0B01B90190010C01BF
:10196000CA01A0011124FF27591B99F0593F50F4D7
:10197000503E68F11A16F040A22F232F342F44272F
:10198000585FF3CF469537952795A795F040539527
:10199000C9F77EF41F16BA0B620B730B840BBAF0F7
:1019A0009150A1F0FF0FBB1F661F771F881FC2F762
:1019B0000EC0BA0F621F731F841F48F48795779576
:1019C0006795B795F7959E3F08F0B0CF9395880F30
:1019D00008F09927EE0F9795879508950E94D80DE6
:1019E00008F481E008950E94070D0C94130E0E94E4
:1019F0000C0E58F00E94050E40F029F45F3F29F0CC
:101A00000C94FC0D51110C94470E0C94020E0E9484
:101A1000240E68F39923B1F3552391F3951B550BCD
:101A2000BB27AA2762177307840738F09F5F5F4FB1
:101A3000220F331F441FAA1FA9F335D00E2E3AF0F0
:101A4000E0E832D091505040E695001CCAF72BD008
:101A5000FE2F29D0660F771F881FBB1F2617370759
:101A60004807AB07B0E809F0BB0B802DBF01FF278B
:101A700093585F4F3AF09E3F510578F00C94FC0D5F
:101A80000C94470E5F3FE4F3983ED4F38695779528
:101A90006795B795F7959F5FC9F7880F911D969544
:101AA000879597F90895E1E0660F771F881FBB1FA0
:101AB000621773078407BA0720F0621B730B840B4D
:101AC000BA0BEE1F88F7E09508950E946C0D68949C
:101AD000B1110C94470E08950E942C0E88F09F5768
:101AE00098F0B92F9927B751B0F0E1F0660F771F42
:101AF000881F991F1AF0BA95C9F714C0B13091F038
:101B00000E94460EB1E008950C94460E672F782F80
:101B10008827B85F39F0B93FCCF3869577956795FC
:101B2000B395D9F73EF490958095709561957F4F68
:101B30008F4F9F4F0895E89409C097FB3EF490950E
:101B40008095709561957F4F8F4F9F4F9923A9F096
:101B5000F92F96E9BB279395F69587957795679525
:101B6000B795F111F8CFFAF4BB0F11F460FF1BC069
:101B70006F5F7F4F8F4F9F4F16C0882311F096E9FC
:101B800011C0772321F09EE8872F762F05C06623AA
:101B900071F096E8862F70E060E02AF09A95660F63
:101BA000771F881FDAF7880F9695879597F908951C
:101BB000990F0008550FAA0BE0E8FEEF161617065E
:101BC000E807F907C0F012161306E407F50798F0C6
:101BD000621B730B840B950B39F40A2661F0232BDF
:101BE000242B252B21F408950A2609F4A140A6955B
:101BF0008FEF811D811D089597F99F6780E870E040
:101C000060E008959FEF80EC089500240A94161672
:101C1000170618060906089500240A9412161306DA
:101C2000140605060895092E0394000C11F4882368
:101C300052F0BB0F40F4BF2B11F460FF04C06F5F84
:101C40007F4F8F4F9F4F089557FD9058440F551F5A
:101C500059F05F3F71F04795880F97FB991F61F02E
:101C60009F3F79F087950895121613061406551FA5
:101C7000F2CF4695F1DF08C0161617061806991F11
:101C8000F1CF86957105610508940895E894BB2706
:101C900066277727CB0197F908950E94D80D08F49D
:101CA0008FEF08950E94650E0C94130E0E94050E8E
:101CB00038F00E940C0E20F0952311F00C94FC0DCE
:101CC0000C94020E11240C94470E0E94240E70F303
:101CD000959FC1F3950F50E0551F629FF001729FD1
:101CE000BB27F00DB11D639FAA27F00DB11DAA1FE0
:101CF000649F6627B00DA11D661F829F2227B00D2D
:101D0000A11D621F739FB00DA11D621F839FA00DB7
:101D1000611D221F749F3327A00D611D231F849F07
:101D2000600D211D822F762F6A2F11249F5750405E
:101D30009AF0F1F088234AF0EE0FFF1FBB1F661FD9
:101D4000771F881F91505040A9F79E3F510580F0A2
:101D50000C94FC0D0C94470E5F3FE4F3983ED4F3D3
:101D6000869577956795B795F795E7959F5FC1F746
:101D7000FE2B880F911D9695879597F908950E94DF
:101D8000D80D880B990B0895991B79E004C0991F11
:101D9000961708F0961B881F7A95C9F780950895C5
:101DA00097FB072E16F4009407D077FD09D00E9408
:101DB000EB0E07FC05D03EF4909581959F4F08955A
:101DC000709561957F4F08950E94720CB7FF08953A
:101DD000821B930B0895AA1BBB1B51E107C0AA1FCE
:101DE000BB1FA617B70710F0A61BB70B881F991FBC
:101DF0005A95A9F780959095BC01CD010895EE0FF5
:101E0000FF1F0590F491E02D099481E090E0F89493
:081E10000C940A0FF894FFCFB7
:101E18001E1E1E1E1E1E1E1E1C1C1C1C1C1C1C1CEA
:101E2800181818181818181810101010101010106A
:101E38000100DC0500020000000026019300BE003E
:101E48006D01EF00CD00E1000000000029039300C0
:101E5800DC04DB046E616E00696E66006F766600F6
:101E6800566F6C74616765203D200043757272651A
:101E78006E74203D200020504F543D0020205468AF
:101E8800726F743D0020204D6170706564506F74EE
:101E980056616C75653D002020426174743D0056A2
:101EA80000202043757272656E743D004100202049
:101EB80072617743757272656E743D002020506FB1
:0A1EC8007765723D000D0A00570017
:107800000C94343C0C94513C0C94513C0C94513CE1
:107810000C94513C0C94513C0C94513C0C94513CB4
:107820000C94513C0C94513C0C94513C0C94513CA4
:107830000C94513C0C94513C0C94513C0C94513C94
:107840000C94513C0C94513C0C94513C0C94513C84
:107850000C94513C0C94513C0C94513C0C94513C74
:107860000C94513C0C94513C11241FBECFEFD8E036
:10787000DEBFCDBF11E0A0E0B1E0ECE9FFE702C060
:1078800005900D92A230B107D9F712E0A2E0B1E065
:1078900001C01D92AD30B107E1F70E942D3D0C945F
:1078A000CC3F0C94003C982F959595959595959582
:1078B000905D8F708A307CF0282F295A8091C0000B
:1078C00085FFFCCF9093C6008091C00085FFFCCF60
:1078D0002093C6000895282F205DF0CF982F809127
:1078E000C00085FFFCCF9093C6000895EF92FF92F1
:1078F0000F931F93EE24FF2487018091C00087FD22
:1079000017C00894E11CF11C011D111D81E4E8164B
:1079100082E4F8068FE0080780E0180770F3E09132
:107920000401F091050109958091C00087FFE9CF1E
:107930008091C6001F910F91FF90EF9008950E94D3
:10794000763C982F8091C00085FFFCCF9093C600B5
:1079500091362CF490330CF09053892F089597555D
:10796000892F08951F930E949F3C182F0E949F3CCF
:107970001295107F810F1F9108951F93182F882350
:1079800021F00E94763C1150E1F71F9108951F935A
:10799000182F0E94763C803249F0809103018F5F5E
:1079A000809303018530C1F01F9108958091C0003C
:1079B00085FFFCCF84E18093C6008091C00085FFE5
:1079C000FCCF1093C6008091C00085FFFCCF80E102
:1079D0008093C6001F910895E0910401F091050184
:1079E00009951F9108950E94763C803241F0809164
:1079F00003018F5F80930301853081F008958091AA
:107A0000C00085FFFCCF84E18093C6008091C00058
:107A100085FFFCCF80E18093C6000895E0910401CA
:107A2000F09105010995089540E951E08823A1F0FE
:107A30002D9A28EE33E0FA013197F1F721503040CA
:107A4000D1F72D9828EE33E0FA013197F1F7215064
:107A50003040D1F7815061F708953F924F925F9285
:107A60006F927F928F929F92AF92BF92CF92DF924E
:107A7000EF92FF920F931F93CF93DF93000080E16B
:107A80008093C4001092C50088E18093C10086E015
:107A90008093C2005098589A259A81E00E94143D24
:107AA00024E1F22E9EE1E92E85E9D82E0FE0C02ECA
:107AB00010E1B12EAA24A394B1E49B2EA6E58A2E50
:107AC000F2E57F2EE0E26E2E79E4572E63E5462E36
:107AD00050E5352E0E94763C8033B1F18133B9F107
:107AE000803409F46FC0813409F476C0823409F41B
:107AF00085C0853409F488C0803531F1823521F1A3
:107B0000813511F1853509F485C0863509F48DC0BC
:107B1000843609F496C0843709F403C1853709F423
:107B200072C1863709F466C0809103018F5F80932C
:107B30000301853079F6E0910401F0910501099582
:107B40000E94763C803351F60E94F33CC3CF0E94E2
:107B5000763C803249F78091C00085FFFCCFF092DF
:107B6000C6008091C00085FFFCCF9092C600809136
:107B7000C00085FFFCCF8092C6008091C00085FFC9
:107B8000FCCF7092C6008091C00085FFFCCF609250
:107B9000C6008091C00085FFFCCF5092C600809146
:107BA000C00085FFFCCF4092C6008091C00085FFD9
:107BB000FCCF3092C6008091C00085FFFCCFB09210
:107BC000C60088CF0E94763C863808F4BDCF0E945C
:107BD000763C0E94F33C7ECF0E94763C803809F4CC
:107BE0009CC0813809F40BC1823809F43CC1883942
:107BF00009F48FC080E00E94C73C6CCF84E10E94F2
:107C0000BD3C0E94F33C66CF85E00E94BD3C0E94D3
:107C1000F33C60CF0E94763C809306010E94763C44
:107C2000809307010E94F33C55CF0E94763C80333D
:107C300009F41DC183E00E94BD3C80E00E94C73C66
:107C400049CF0E94763C809309020E94763C809343
:107C5000080280910C028E7F80930C020E94763C79
:107C6000853409F415C18091080290910902892B8D
:107C700089F000E010E00E94763CF801E85FFE4FDA
:107C800080830F5F1F4F80910802909109020817AF
:107C9000190788F30E94763C803209F045CF809125
:107CA0000C0280FF01C16091060170910701660F0F
:107CB000771F7093070160930601A0910802B091AD
:107CC00009021097C9F0E8E0F1E09B01AD014E0F09
:107CD0005F1FF999FECF32BD21BD819180BDFA9A17
:107CE000F99A2F5F3F4FE417F50799F76A0F7B1F4B
:107CF00070930701609306018091C00085FFFCCF5F
:107D0000F092C6008091C00085FFFCCFB092C60003
:107D1000E1CE83E00E94C73CDDCE82E00E94C73CFA
:107D2000D9CE0E94763C809309020E94763C8093D3
:107D300008028091060190910701880F991F909386
:107D40000701809306010E94763C853409F4A6C0A1
:107D500080910C028E7F80930C020E94763C8032D0
:107D600009F0B8CE8091C00085FFFCCFF092C6002C
:107D7000609108027091090261157105B9F140E046
:107D800050E080910C02A82FA170B82FB27011C0E2
:107D9000BB2309F45CC0E0910601F0910701319624
:107DA000F0930701E09306014F5F5F4F46175707B7
:107DB000E8F4AA2369F3F999FECF209106013091E6
:107DC000070132BD21BDF89A90B58091C00085FFB2
:107DD000FCCF9093C6002F5F3F4F30930701209355
:107DE00006014F5F5F4F4617570718F38091C00099
:107DF00085FDE5CE8091C00085FFF8CFE0CE81E023
:107E00000E94C73C67CE0E94763C803209F08CCE3F
:107E10008091C00085FFFCCFF092C6008091C00029
:107E200085FFFCCFE092C6008091C00085FFFCCFAB
:107E3000D092C6008091C00085FFFCCFC092C600E2
:107E40008091C00085FFFCCFB092C60043CEE09188
:107E50000601F091070194918091C00085FFFCCF4D
:107E60009093C6009CCF80E10E94C73C33CE0E9415
:107E7000763C0E94763C182F0E94763C112309F430
:107E800083C0113009F484C08FE00E94C73C22CE29
:107E900080910C02816080930C02E5CE80910C02EF
:107EA000816080930C0259CF809107018823880F4D
:107EB000880B8A2180930B02809106019091070123
:107EC000880F991F90930701809306018091080203
:107ED00080FF09C080910802909109020196909359
:107EE000090280930802F894F999FECF1127E091D6
:107EF0000601F0910701C8E0D1E08091080290915D
:107F00000902103091F40091570001700130D9F34B
:107F100003E000935700E89500915700017001308D
:107F2000D9F301E100935700E89509901990009169
:107F3000570001700130D9F301E000935700E89534
:107F40001395103498F011270091570001700130FB
:107F5000D9F305E000935700E895009157000170B0
:107F60000130D9F301E100935700E895329602976A
:107F700009F0C7CF103011F00296E5CF112480919F
:107F8000C00085FFB9CEBCCE8EE10E94C73CA2CD19
:0C7F900085E90E94C73C9ECDF894FFCF0D
:027F9C00800063
:040000030000780081
:00000001FF